{
  "contractName": "Vesting",
  "abi": [
    {
      "inputs": [],
      "stateMutability": "nonpayable",
      "type": "constructor"
    },
    {
      "anonymous": false,
      "inputs": [
        {
          "indexed": false,
          "internalType": "address",
          "name": "_address",
          "type": "address"
        }
      ],
      "name": "AddNewAdmin",
      "type": "event"
    },
    {
      "anonymous": false,
      "inputs": [
        {
          "indexed": false,
          "internalType": "address",
          "name": "account",
          "type": "address"
        }
      ],
      "name": "Cancelled",
      "type": "event"
    },
    {
      "anonymous": false,
      "inputs": [
        {
          "indexed": true,
          "internalType": "address",
          "name": "claimer",
          "type": "address"
        },
        {
          "indexed": false,
          "internalType": "uint256",
          "name": "amount",
          "type": "uint256"
        }
      ],
      "name": "Claim",
      "type": "event"
    },
    {
      "anonymous": false,
      "inputs": [
        {
          "indexed": true,
          "internalType": "address",
          "name": "investor",
          "type": "address"
        },
        {
          "indexed": false,
          "internalType": "uint256",
          "name": "amount",
          "type": "uint256"
        },
        {
          "indexed": false,
          "internalType": "bool",
          "name": "isFixed",
          "type": "bool"
        }
      ],
      "name": "NewVesting",
      "type": "event"
    },
    {
      "anonymous": false,
      "inputs": [
        {
          "indexed": true,
          "internalType": "address",
          "name": "previousOwner",
          "type": "address"
        },
        {
          "indexed": true,
          "internalType": "address",
          "name": "newOwner",
          "type": "address"
        }
      ],
      "name": "OwnershipTransferred",
      "type": "event"
    },
    {
      "anonymous": false,
      "inputs": [
        {
          "indexed": false,
          "internalType": "address",
          "name": "_address",
          "type": "address"
        }
      ],
      "name": "RemoveAdminAddress",
      "type": "event"
    },
    {
      "anonymous": false,
      "inputs": [
        {
          "indexed": false,
          "internalType": "uint256",
          "name": "_timestamp",
          "type": "uint256"
        }
      ],
      "name": "UnlockTokens",
      "type": "event"
    },
    {
      "anonymous": false,
      "inputs": [
        {
          "indexed": false,
          "internalType": "address",
          "name": "_treasuryWallet",
          "type": "address"
        }
      ],
      "name": "UpdateTreasuryWallet",
      "type": "event"
    },
    {
      "inputs": [
        {
          "internalType": "address",
          "name": "",
          "type": "address"
        }
      ],
      "name": "admins",
      "outputs": [
        {
          "internalType": "bool",
          "name": "",
          "type": "bool"
        }
      ],
      "stateMutability": "view",
      "type": "function"
    },
    {
      "inputs": [
        {
          "internalType": "address",
          "name": "",
          "type": "address"
        }
      ],
      "name": "locked",
      "outputs": [
        {
          "internalType": "uint256",
          "name": "",
          "type": "uint256"
        }
      ],
      "stateMutability": "view",
      "type": "function"
    },
    {
      "inputs": [
        {
          "internalType": "uint256",
          "name": "",
          "type": "uint256"
        }
      ],
      "name": "members",
      "outputs": [
        {
          "internalType": "address",
          "name": "",
          "type": "address"
        }
      ],
      "stateMutability": "view",
      "type": "function"
    },
    {
      "inputs": [
        {
          "internalType": "address",
          "name": "",
          "type": "address"
        }
      ],
      "name": "numberOfSchedules",
      "outputs": [
        {
          "internalType": "uint256",
          "name": "",
          "type": "uint256"
        }
      ],
      "stateMutability": "view",
      "type": "function"
    },
    {
      "inputs": [],
      "name": "owner",
      "outputs": [
        {
          "internalType": "address",
          "name": "",
          "type": "address"
        }
      ],
      "stateMutability": "view",
      "type": "function"
    },
    {
      "inputs": [],
      "name": "renounceOwnership",
      "outputs": [],
      "stateMutability": "nonpayable",
      "type": "function"
    },
    {
      "inputs": [
        {
          "internalType": "uint256",
          "name": "",
          "type": "uint256"
        }
      ],
      "name": "schedulePlain",
      "outputs": [
        {
          "internalType": "uint256",
          "name": "percentage",
          "type": "uint256"
        },
        {
          "internalType": "uint256",
          "name": "unlockTime",
          "type": "uint256"
        },
        {
          "internalType": "bool",
          "name": "isSent",
          "type": "bool"
        }
      ],
      "stateMutability": "view",
      "type": "function"
    },
    {
      "inputs": [
        {
          "internalType": "address",
          "name": "",
          "type": "address"
        },
        {
          "internalType": "uint256",
          "name": "",
          "type": "uint256"
        }
      ],
      "name": "schedules",
      "outputs": [
        {
          "internalType": "uint256",
          "name": "amount",
          "type": "uint256"
        },
        {
          "internalType": "uint256",
          "name": "claimedAmount",
          "type": "uint256"
        },
        {
          "internalType": "uint256",
          "name": "unlockTime",
          "type": "uint256"
        },
        {
          "internalType": "bool",
          "name": "isFixed",
          "type": "bool"
        }
      ],
      "stateMutability": "view",
      "type": "function"
    },
    {
      "inputs": [],
      "name": "token",
      "outputs": [
        {
          "internalType": "contract IBEP20",
          "name": "",
          "type": "address"
        }
      ],
      "stateMutability": "view",
      "type": "function"
    },
    {
      "inputs": [
        {
          "internalType": "address",
          "name": "newOwner",
          "type": "address"
        }
      ],
      "name": "transferOwnership",
      "outputs": [],
      "stateMutability": "nonpayable",
      "type": "function"
    },
    {
      "inputs": [
        {
          "internalType": "uint256",
          "name": "",
          "type": "uint256"
        }
      ],
      "name": "vestingTimeList",
      "outputs": [
        {
          "internalType": "uint256",
          "name": "",
          "type": "uint256"
        }
      ],
      "stateMutability": "view",
      "type": "function"
    },
    {
      "inputs": [
        {
          "internalType": "address",
          "name": "",
          "type": "address"
        }
      ],
      "name": "whitelistOfTiers",
      "outputs": [
        {
          "internalType": "uint256",
          "name": "",
          "type": "uint256"
        }
      ],
      "stateMutability": "view",
      "type": "function"
    },
    {
      "inputs": [
        {
          "internalType": "address",
          "name": "_address",
          "type": "address"
        }
      ],
      "name": "addAdmin",
      "outputs": [],
      "stateMutability": "nonpayable",
      "type": "function"
    },
    {
      "inputs": [
        {
          "internalType": "address",
          "name": "_address",
          "type": "address"
        }
      ],
      "name": "removeAdmin",
      "outputs": [],
      "stateMutability": "nonpayable",
      "type": "function"
    },
    {
      "inputs": [],
      "name": "getTotalSoldAmount",
      "outputs": [
        {
          "internalType": "uint256",
          "name": "",
          "type": "uint256"
        }
      ],
      "stateMutability": "view",
      "type": "function"
    },
    {
      "inputs": [],
      "name": "getParticipants",
      "outputs": [
        {
          "internalType": "uint256",
          "name": "",
          "type": "uint256"
        }
      ],
      "stateMutability": "view",
      "type": "function"
    },
    {
      "inputs": [
        {
          "internalType": "address",
          "name": "_treasuryWallet",
          "type": "address"
        }
      ],
      "name": "setTreasuryWallet",
      "outputs": [],
      "stateMutability": "nonpayable",
      "type": "function"
    },
    {
      "inputs": [],
      "name": "getTreasuryWallet",
      "outputs": [
        {
          "internalType": "address",
          "name": "",
          "type": "address"
        }
      ],
      "stateMutability": "view",
      "type": "function"
    },
    {
      "inputs": [
        {
          "internalType": "uint256",
          "name": "amount",
          "type": "uint256"
        },
        {
          "internalType": "bool",
          "name": "isFixed",
          "type": "bool"
        },
        {
          "internalType": "address",
          "name": "payCurrency",
          "type": "address"
        }
      ],
      "name": "addVest",
      "outputs": [],
      "stateMutability": "payable",
      "type": "function"
    },
    {
      "inputs": [
        {
          "internalType": "uint256",
          "name": "scheduleNumber",
          "type": "uint256"
        }
      ],
      "name": "claim",
      "outputs": [],
      "stateMutability": "nonpayable",
      "type": "function"
    },
    {
      "inputs": [
        {
          "internalType": "address",
          "name": "account",
          "type": "address"
        },
        {
          "internalType": "uint256",
          "name": "scheduleId",
          "type": "uint256"
        }
      ],
      "name": "rug",
      "outputs": [],
      "stateMutability": "nonpayable",
      "type": "function"
    },
    {
      "inputs": [
        {
          "internalType": "uint256",
          "name": "amount",
          "type": "uint256"
        }
      ],
      "name": "withdraw",
      "outputs": [],
      "stateMutability": "nonpayable",
      "type": "function"
    },
    {
      "inputs": [
        {
          "internalType": "address[]",
          "name": "accounts",
          "type": "address[]"
        },
        {
          "internalType": "uint256[]",
          "name": "_maxAmount",
          "type": "uint256[]"
        }
      ],
      "name": "multiSetTierOfAccount",
      "outputs": [],
      "stateMutability": "nonpayable",
      "type": "function"
    },
    {
      "inputs": [
        {
          "internalType": "address",
          "name": "account",
          "type": "address"
        },
        {
          "internalType": "uint256",
          "name": "_maxAmount",
          "type": "uint256"
        }
      ],
      "name": "setTierOfAccount",
      "outputs": [],
      "stateMutability": "nonpayable",
      "type": "function"
    },
    {
      "inputs": [
        {
          "internalType": "address",
          "name": "account",
          "type": "address"
        }
      ],
      "name": "getTierOfAccount",
      "outputs": [
        {
          "internalType": "uint256",
          "name": "",
          "type": "uint256"
        }
      ],
      "stateMutability": "view",
      "type": "function"
    },
    {
      "inputs": [],
      "name": "unlockToken",
      "outputs": [],
      "stateMutability": "nonpayable",
      "type": "function"
    },
    {
      "inputs": [],
      "name": "getSchedulePlain",
      "outputs": [
        {
          "components": [
            {
              "internalType": "uint256",
              "name": "percentage",
              "type": "uint256"
            },
            {
              "internalType": "uint256",
              "name": "unlockTime",
              "type": "uint256"
            },
            {
              "internalType": "bool",
              "name": "isSent",
              "type": "bool"
            }
          ],
          "internalType": "struct Vesting.Plain[]",
          "name": "",
          "type": "tuple[]"
        }
      ],
      "stateMutability": "view",
      "type": "function"
    }
  ],
  "bytecode": "0x608060405260006006553480156200001657600080fd5b50600062000029620004cd60201b60201c565b9050806000806101000a81548173ffffffffffffffffffffffffffffffffffffffff021916908373ffffffffffffffffffffffffffffffffffffffff1602179055508073ffffffffffffffffffffffffffffffffffffffff16600073ffffffffffffffffffffffffffffffffffffffff167f8be0079c531659141344cd1fd0a4f28419497f9722a3daafe3b4186f6b6457e060405160405180910390a35073ef9481115ff33e94d3e28a52d3a8f642bf3521e5600160006101000a81548173ffffffffffffffffffffffffffffffffffffffff021916908373ffffffffffffffffffffffffffffffffffffffff160217905550737621b2c41ec4df9baaa32d7bdd48144442b2c8a7600260006101000a81548173ffffffffffffffffffffffffffffffffffffffff021916908373ffffffffffffffffffffffffffffffffffffffff16021790555060016007600062000187620004d560201b60201c565b73ffffffffffffffffffffffffffffffffffffffff1673ffffffffffffffffffffffffffffffffffffffff16815260200190815260200160002060006101000a81548160ff021916908315150217905550600060058190555060046361b3a3b0908060018154018082558091505060019003906000526020600020016000909190919091505560046361dc82309080600181540180825580915050600190039060005260206000200160009091909190915055600463620560b09080600181540180825580915050600190039060005260206000200160009091909190915055600463622a4ab09080600181540180825580915050600190039060005260206000200160009091909190915055600463625329309080600181540180825580915050600190039060005260206000200160009091909190915055600463627ab630908060018154018082558091505060019003906000526020600020016000909190919091505560005b60048054905081101562000468576000811415620003b05760096040518060600160405280600581526020016004848154811062000334576200033362000585565b5b90600052602060002001548152602001600015158152509080600181540180825580915050600190039060005260206000209060030201600090919091909150600082015181600001556020820151816001015560408201518160020160006101000a81548160ff021916908315150217905550505062000452565b600960405180606001604052806013815260200160048481548110620003db57620003da62000585565b5b90600052602060002001548152602001600015158152509080600181540180825580915050600190039060005260206000209060030201600090919091909150600082015181600001556020820151816001015560408201518160020160006101000a81548160ff02191690831515021790555050505b80806200045f9062000508565b915050620002f1565b506a4860d8812f0b38878000006008600062000489620004d560201b60201c565b73ffffffffffffffffffffffffffffffffffffffff1673ffffffffffffffffffffffffffffffffffffffff16815260200190815260200160002081905550620005b4565b600033905090565b60008060009054906101000a900473ffffffffffffffffffffffffffffffffffffffff16905090565b6000819050919050565b60006200051582620004fe565b91507fffffffffffffffffffffffffffffffffffffffffffffffffffffffffffffffff8214156200054b576200054a62000556565b5b600182019050919050565b7f4e487b7100000000000000000000000000000000000000000000000000000000600052601160045260246000fd5b7f4e487b7100000000000000000000000000000000000000000000000000000000600052603260045260246000fd5b61431a80620005c46000396000f3fe60806040526004361061019c5760003560e01c80638da5cb5b116100ec578063d018eb0f1161008a578063efa6d0df11610064578063efa6d0df146105e2578063f2fde38b1461060b578063fc0c546a14610634578063ffb4b1be1461065f5761019c565b8063d018eb0f1461053d578063d59cceea1461057a578063df681c14146105a55761019c565b8063ab64ae70116100c6578063ab64ae701461046a578063b17a58cf14610486578063cbf9fe5f146104c3578063ceb9c752146105005761019c565b80638da5cb5b146103eb578063933bdb9014610416578063a8602fea146104415761019c565b8063379607f5116101595780635daf08ca116101335780635daf08ca1461032e578063704802751461036b578063715018a614610394578063854e9682146103ab5761019c565b8063379607f51461029d578063429b62e5146102c65780635aa68ac0146103035761019c565b80631785f53c146101a157806318a24b5b146101ca57806329c6a24e146101e15780632c035b741461020a5780632e1a7d4d146102355780633405ba2f1461025e575b600080fd5b3480156101ad57600080fd5b506101c860048036038101906101c39190612f38565b610688565b005b3480156101d657600080fd5b506101df610892565b005b3480156101ed57600080fd5b5061020860048036038101906102039190612f65565b610f7d565b005b34801561021657600080fd5b5061021f6110ee565b60405161022c919061357d565b60405180910390f35b34801561024157600080fd5b5061025c60048036038101906102579190613053565b611118565b005b34801561026a57600080fd5b5061028560048036038101906102809190613053565b611452565b604051610294939291906139b4565b60405180910390f35b3480156102a957600080fd5b506102c460048036038101906102bf9190613053565b611499565b005b3480156102d257600080fd5b506102ed60048036038101906102e89190612f38565b6117b7565b6040516102fa919061361a565b60405180910390f35b34801561030f57600080fd5b506103186117d7565b6040516103259190613970565b60405180910390f35b34801561033a57600080fd5b5061035560048036038101906103509190613053565b6117e4565b604051610362919061357d565b60405180910390f35b34801561037757600080fd5b50610392600480360381019061038d9190612f38565b611823565b005b3480156103a057600080fd5b506103a9611a2e565b005b3480156103b757600080fd5b506103d260048036038101906103cd9190612f65565b611b68565b6040516103e294939291906139eb565b60405180910390f35b3480156103f757600080fd5b50610400611bb2565b60405161040d919061357d565b60405180910390f35b34801561042257600080fd5b5061042b611bdb565b6040516104389190613970565b60405180910390f35b34801561044d57600080fd5b5061046860048036038101906104639190612f38565b611be5565b005b610484600480360381019061047f91906130ad565b611d33565b005b34801561049257600080fd5b506104ad60048036038101906104a89190612f38565b61248d565b6040516104ba9190613970565b60405180910390f35b3480156104cf57600080fd5b506104ea60048036038101906104e59190612f38565b6124a5565b6040516104f79190613970565b60405180910390f35b34801561050c57600080fd5b5061052760048036038101906105229190612f38565b6124bd565b6040516105349190613970565b60405180910390f35b34801561054957600080fd5b50610564600480360381019061055f9190613053565b612506565b6040516105719190613970565b60405180910390f35b34801561058657600080fd5b5061058f61252a565b60405161059c91906135f8565b60405180910390f35b3480156105b157600080fd5b506105cc60048036038101906105c79190612f38565b6125b8565b6040516105d99190613970565b60405180910390f35b3480156105ee57600080fd5b5061060960048036038101906106049190612fa5565b6125d0565b005b34801561061757600080fd5b50610632600480360381019061062d9190612f38565b612869565b005b34801561064057600080fd5b50610649612a12565b6040516106569190613635565b60405180910390f35b34801561066b57600080fd5b5061068660048036038101906106819190612f65565b612a38565b005b610690612e1b565b73ffffffffffffffffffffffffffffffffffffffff166106ae611bb2565b73ffffffffffffffffffffffffffffffffffffffff1614610704576040517f08c379a00000000000000000000000000000000000000000000000000000000081526004016106fb906137f0565b60405180910390fd5b600073ffffffffffffffffffffffffffffffffffffffff168173ffffffffffffffffffffffffffffffffffffffff161415610774576040517f08c379a000000000000000000000000000000000000000000000000000000000815260040161076b906136f0565b60405180910390fd5b600760008273ffffffffffffffffffffffffffffffffffffffff1673ffffffffffffffffffffffffffffffffffffffff16815260200190815260200160002060009054906101000a900460ff16610800576040517f08c379a00000000000000000000000000000000000000000000000000000000081526004016107f790613950565b60405180910390fd5b6000600760008373ffffffffffffffffffffffffffffffffffffffff1673ffffffffffffffffffffffffffffffffffffffff16815260200190815260200160002060006101000a81548160ff0219169083151502179055507f33bc9e3b4b0d976d5663b552f0d1aa59f10b338ef8cd23229b8e4554e342b67c81604051610887919061357d565b60405180910390a150565b600073ffffffffffffffffffffffffffffffffffffffff166108b2612e1b565b73ffffffffffffffffffffffffffffffffffffffff16141580156109265750600760006108dd612e1b565b73ffffffffffffffffffffffffffffffffffffffff1673ffffffffffffffffffffffffffffffffffffffff16815260200190815260200160002060009054906101000a900460ff165b610965576040517f08c379a000000000000000000000000000000000000000000000000000000000815260040161095c90613850565b60405180910390fd5b6000429050600060096005548154811061098257610981613cb4565b5b9060005260206000209060030201600101549050808210156109d9576040517f08c379a00000000000000000000000000000000000000000000000000000000081526004016109d090613810565b60405180910390fd5b600660055410610a1e576040517f08c379a0000000000000000000000000000000000000000000000000000000008152600401610a1590613710565b60405180910390fd5b600960055481548110610a3457610a33613cb4565b5b906000526020600020906003020160020160009054906101000a900460ff1615610a93576040517f08c379a0000000000000000000000000000000000000000000000000000000008152600401610a8a906138b0565b60405180910390fd5b60006005541415610b8f57622625a0600160009054906101000a900473ffffffffffffffffffffffffffffffffffffffff1673ffffffffffffffffffffffffffffffffffffffff166370a08231306040518263ffffffff1660e01b8152600401610afd919061357d565b60206040518083038186803b158015610b1557600080fd5b505afa158015610b29573d6000803e3d6000fd5b505050506040513d601f19601f82011682018060405250810190610b4d9190613080565b1015610b8e576040517f08c379a0000000000000000000000000000000000000000000000000000000008152600401610b8590613870565b60405180910390fd5b5b60005b600380549050811015610ecc576000600a600060038481548110610bb957610bb8613cb4565b5b9060005260206000200160009054906101000a900473ffffffffffffffffffffffffffffffffffffffff1673ffffffffffffffffffffffffffffffffffffffff1673ffffffffffffffffffffffffffffffffffffffff168152602001908152602001600020600060055481526020019081526020016000206040518060800160405290816000820154815260200160018201548152602001600282015481526020016003820160009054906101000a900460ff16151515158152505090508060200151816000015114610eb857600081602001518260000151610c9c9190613b5b565b9050600160009054906101000a900473ffffffffffffffffffffffffffffffffffffffff1673ffffffffffffffffffffffffffffffffffffffff1663a9059cbb60038581548110610cf057610cef613cb4565b5b9060005260206000200160009054906101000a900473ffffffffffffffffffffffffffffffffffffffff16836040518363ffffffff1660e01b8152600401610d399291906135cf565b602060405180830381600087803b158015610d5357600080fd5b505af1158015610d67573d6000803e3d6000fd5b505050506040513d601f19601f82011682018060405250810190610d8b9190613026565b610d9457600080fd5b80600c6000600160009054906101000a900473ffffffffffffffffffffffffffffffffffffffff1673ffffffffffffffffffffffffffffffffffffffff1673ffffffffffffffffffffffffffffffffffffffff1681526020019081526020016000206000828254610e059190613b5b565b9250508190555080600a600060038681548110610e2557610e24613cb4565b5b9060005260206000200160009054906101000a900473ffffffffffffffffffffffffffffffffffffffff1673ffffffffffffffffffffffffffffffffffffffff1673ffffffffffffffffffffffffffffffffffffffff168152602001908152602001600020600060055481526020019081526020016000206001016000828254610eaf9190613a7a565b92505081905550505b508080610ec490613c0d565b915050610b92565b507fe468a184bc2a1e5c9c5fbd34dda66145a553603678c8c126b4ff137d17f527a2600460055481548110610f0457610f03613cb4565b5b9060005260206000200154604051610f1c9190613970565b60405180910390a16001600960055481548110610f3c57610f3b613cb4565b5b906000526020600020906003020160020160006101000a81548160ff0219169083151502179055506001600554610f739190613a7a565b6005819055505050565b600073ffffffffffffffffffffffffffffffffffffffff16610f9d612e1b565b73ffffffffffffffffffffffffffffffffffffffff1614158015611011575060076000610fc8612e1b565b73ffffffffffffffffffffffffffffffffffffffff1673ffffffffffffffffffffffffffffffffffffffff16815260200190815260200160002060009054906101000a900460ff165b611050576040517f08c379a000000000000000000000000000000000000000000000000000000000815260040161104790613850565b60405180910390fd5b60008111611093576040517f08c379a000000000000000000000000000000000000000000000000000000000815260040161108a90613750565b60405180910390fd5b670de0b6b3a7640000816110a79190613b01565b600860008473ffffffffffffffffffffffffffffffffffffffff1673ffffffffffffffffffffffffffffffffffffffff168152602001908152602001600020819055505050565b6000600260009054906101000a900473ffffffffffffffffffffffffffffffffffffffff16905090565b600073ffffffffffffffffffffffffffffffffffffffff16611138612e1b565b73ffffffffffffffffffffffffffffffffffffffff16141580156111ac575060076000611163612e1b565b73ffffffffffffffffffffffffffffffffffffffff1673ffffffffffffffffffffffffffffffffffffffff16815260200190815260200160002060009054906101000a900460ff165b6111eb576040517f08c379a00000000000000000000000000000000000000000000000000000000081526004016111e290613850565b60405180910390fd5b670de0b6b3a7640000816111ff9190613b01565b905080600c6000600160009054906101000a900473ffffffffffffffffffffffffffffffffffffffff1673ffffffffffffffffffffffffffffffffffffffff1673ffffffffffffffffffffffffffffffffffffffff16815260200190815260200160002054600160009054906101000a900473ffffffffffffffffffffffffffffffffffffffff1673ffffffffffffffffffffffffffffffffffffffff166370a08231306040518263ffffffff1660e01b81526004016112bf919061357d565b60206040518083038186803b1580156112d757600080fd5b505afa1580156112eb573d6000803e3d6000fd5b505050506040513d601f19601f8201168201806040525081019061130f9190613080565b6113199190613b5b565b101561135a576040517f08c379a000000000000000000000000000000000000000000000000000000000815260040161135190613670565b60405180910390fd5b600160009054906101000a900473ffffffffffffffffffffffffffffffffffffffff1673ffffffffffffffffffffffffffffffffffffffff1663a9059cbb6113a0611bb2565b836040518363ffffffff1660e01b81526004016113be9291906135cf565b602060405180830381600087803b1580156113d857600080fd5b505af11580156113ec573d6000803e3d6000fd5b505050506040513d601f19601f820116820180604052508101906114109190613026565b61144f576040517f08c379a0000000000000000000000000000000000000000000000000000000008152600401611446906136b0565b60405180910390fd5b50565b6009818154811061146257600080fd5b90600052602060002090600302016000915090508060000154908060010154908060020160009054906101000a900460ff16905083565b6000600a60003373ffffffffffffffffffffffffffffffffffffffff1673ffffffffffffffffffffffffffffffffffffffff168152602001908152602001600020600083815260200190815260200160002090504281600201541115611534576040517f08c379a000000000000000000000000000000000000000000000000000000000815260040161152b906137b0565b60405180910390fd5b600081600001541161157b576040517f08c379a0000000000000000000000000000000000000000000000000000000008152600401611572906138f0565b60405180910390fd5b6000816001015482600001546115919190613b5b565b90508160000154826001018190555080600c6000600160009054906101000a900473ffffffffffffffffffffffffffffffffffffffff1673ffffffffffffffffffffffffffffffffffffffff1673ffffffffffffffffffffffffffffffffffffffff1681526020019081526020016000205461160d9190613b5b565b600c6000600160009054906101000a900473ffffffffffffffffffffffffffffffffffffffff1673ffffffffffffffffffffffffffffffffffffffff1673ffffffffffffffffffffffffffffffffffffffff16815260200190815260200160002081905550600160009054906101000a900473ffffffffffffffffffffffffffffffffffffffff1673ffffffffffffffffffffffffffffffffffffffff1663a9059cbb33836040518363ffffffff1660e01b81526004016116cf9291906135cf565b602060405180830381600087803b1580156116e957600080fd5b505af11580156116fd573d6000803e3d6000fd5b505050506040513d601f19601f820116820180604052508101906117219190613026565b611760576040517f08c379a000000000000000000000000000000000000000000000000000000000815260040161175790613790565b60405180910390fd5b3373ffffffffffffffffffffffffffffffffffffffff167f47cee97cb7acd717b3c0aa1435d004cd5b3c8c57d70dbceb4e4458bbd60e39d483600001546040516117aa9190613970565b60405180910390a2505050565b60076020528060005260406000206000915054906101000a900460ff1681565b6000600380549050905090565b600381815481106117f457600080fd5b906000526020600020016000915054906101000a900473ffffffffffffffffffffffffffffffffffffffff1681565b61182b612e1b565b73ffffffffffffffffffffffffffffffffffffffff16611849611bb2565b73ffffffffffffffffffffffffffffffffffffffff161461189f576040517f08c379a0000000000000000000000000000000000000000000000000000000008152600401611896906137f0565b60405180910390fd5b600073ffffffffffffffffffffffffffffffffffffffff168173ffffffffffffffffffffffffffffffffffffffff16141561190f576040517f08c379a0000000000000000000000000000000000000000000000000000000008152600401611906906136f0565b60405180910390fd5b600760008273ffffffffffffffffffffffffffffffffffffffff1673ffffffffffffffffffffffffffffffffffffffff16815260200190815260200160002060009054906101000a900460ff161561199c576040517f08c379a000000000000000000000000000000000000000000000000000000000815260040161199390613650565b60405180910390fd5b6001600760008373ffffffffffffffffffffffffffffffffffffffff1673ffffffffffffffffffffffffffffffffffffffff16815260200190815260200160002060006101000a81548160ff0219169083151502179055507fe8545298d4f2a47282e100b4cbcf2645ab4d367b85c00b0fc35e03f4ee409b7f81604051611a23919061357d565b60405180910390a150565b611a36612e1b565b73ffffffffffffffffffffffffffffffffffffffff16611a54611bb2565b73ffffffffffffffffffffffffffffffffffffffff1614611aaa576040517f08c379a0000000000000000000000000000000000000000000000000000000008152600401611aa1906137f0565b60405180910390fd5b600073ffffffffffffffffffffffffffffffffffffffff1660008054906101000a900473ffffffffffffffffffffffffffffffffffffffff1673ffffffffffffffffffffffffffffffffffffffff167f8be0079c531659141344cd1fd0a4f28419497f9722a3daafe3b4186f6b6457e060405160405180910390a360008060006101000a81548173ffffffffffffffffffffffffffffffffffffffff021916908373ffffffffffffffffffffffffffffffffffffffff160217905550565b600a602052816000526040600020602052806000526040600020600091509150508060000154908060010154908060020154908060030160009054906101000a900460ff16905084565b60008060009054906101000a900473ffffffffffffffffffffffffffffffffffffffff16905090565b6000600654905090565b600073ffffffffffffffffffffffffffffffffffffffff16611c05612e1b565b73ffffffffffffffffffffffffffffffffffffffff1614158015611c79575060076000611c30612e1b565b73ffffffffffffffffffffffffffffffffffffffff1673ffffffffffffffffffffffffffffffffffffffff16815260200190815260200160002060009054906101000a900460ff165b611cb8576040517f08c379a0000000000000000000000000000000000000000000000000000000008152600401611caf90613850565b60405180910390fd5b80600260006101000a81548173ffffffffffffffffffffffffffffffffffffffff021916908373ffffffffffffffffffffffffffffffffffffffff1602179055507f7bdfb4a7f59b687d1b5dc131df162bfbe0456a6b5fc0bf2be4f912a6c5ac586c81604051611d28919061357d565b60405180910390a150565b60006103e86008670de0b6b3a764000086611d4e9190613b01565b611d589190613b01565b611d629190613ad0565b905060008411611da7576040517f08c379a0000000000000000000000000000000000000000000000000000000008152600401611d9e90613930565b60405180910390fd5b600073ffffffffffffffffffffffffffffffffffffffff168273ffffffffffffffffffffffffffffffffffffffff161415611e17576040517f08c379a0000000000000000000000000000000000000000000000000000000008152600401611e0e90613830565b60405180910390fd5b808273ffffffffffffffffffffffffffffffffffffffff166370a08231336040518263ffffffff1660e01b8152600401611e51919061357d565b60206040518083038186803b158015611e6957600080fd5b505afa158015611e7d573d6000803e3d6000fd5b505050506040513d601f19601f82011682018060405250810190611ea19190613080565b1015611ee2576040517f08c379a0000000000000000000000000000000000000000000000000000000008152600401611ed990613770565b60405180910390fd5b6000600c6000600160009054906101000a900473ffffffffffffffffffffffffffffffffffffffff1673ffffffffffffffffffffffffffffffffffffffff1673ffffffffffffffffffffffffffffffffffffffff168152602001908152602001600020549050670de0b6b3a764000085611f5c9190613b01565b81611f679190613a7a565b600160009054906101000a900473ffffffffffffffffffffffffffffffffffffffff1673ffffffffffffffffffffffffffffffffffffffff166370a08231306040518263ffffffff1660e01b8152600401611fc2919061357d565b60206040518083038186803b158015611fda57600080fd5b505afa158015611fee573d6000803e3d6000fd5b505050506040513d601f19601f820116820180604052508101906120129190613080565b1015612053576040517f08c379a000000000000000000000000000000000000000000000000000000000815260040161204a906138d0565b60405180910390fd5b6000600b60003373ffffffffffffffffffffffffffffffffffffffff1673ffffffffffffffffffffffffffffffffffffffff168152602001908152602001600020549050600081146120da576040517f08c379a00000000000000000000000000000000000000000000000000000000081526004016120d190613730565b60405180910390fd5b60005b60098054905081101561231f57600060646009838154811061210257612101613cb4565b5b906000526020600020906003020160000154670de0b6b3a76400008a6121289190613b01565b6121329190613b01565b61213c9190613ad0565b905060006009838154811061215457612153613cb4565b5b9060005260206000209060030201600101549050604051806080016040528083815260200160008152602001828152602001891515815250600a60003373ffffffffffffffffffffffffffffffffffffffff1673ffffffffffffffffffffffffffffffffffffffff168152602001908152602001600020600085815260200190815260200160002060008201518160000155602082015181600101556040820151816002015560608201518160030160006101000a81548160ff02191690831515021790555090505060018361222a9190613a7a565b600b60003373ffffffffffffffffffffffffffffffffffffffff1673ffffffffffffffffffffffffffffffffffffffff16815260200190815260200160002081905550670de0b6b3a7640000896122819190613b01565b8561228c9190613a7a565b600c6000600160009054906101000a900473ffffffffffffffffffffffffffffffffffffffff1673ffffffffffffffffffffffffffffffffffffffff1673ffffffffffffffffffffffffffffffffffffffff1681526020019081526020016000208190555081600660008282546123039190613a7a565b925050819055505050808061231790613c0d565b9150506120dd565b506003339080600181540180825580915050600190039060005260206000200160009091909190916101000a81548173ffffffffffffffffffffffffffffffffffffffff021916908373ffffffffffffffffffffffffffffffffffffffff1602179055508373ffffffffffffffffffffffffffffffffffffffff166323b872dd33600260009054906101000a900473ffffffffffffffffffffffffffffffffffffffff16866040518463ffffffff1660e01b81526004016123e293929190613598565b602060405180830381600087803b1580156123fc57600080fd5b505af1158015612410573d6000803e3d6000fd5b505050506040513d601f19601f820116820180604052508101906124349190613026565b503373ffffffffffffffffffffffffffffffffffffffff167fe3b9a78308fbd313c084842efc8429b592f3980a893be12ed39018b5b16deb09878760405161247d92919061398b565b60405180910390a2505050505050565b60086020528060005260406000206000915090505481565b600c6020528060005260406000206000915090505481565b6000600860008373ffffffffffffffffffffffffffffffffffffffff1673ffffffffffffffffffffffffffffffffffffffff168152602001908152602001600020549050919050565b6004818154811061251657600080fd5b906000526020600020016000915090505481565b60606009805480602002602001604051908101604052809291908181526020016000905b828210156125af578382906000526020600020906003020160405180606001604052908160008201548152602001600182015481526020016002820160009054906101000a900460ff1615151515815250508152602001906001019061254e565b50505050905090565b600b6020528060005260406000206000915090505481565b600073ffffffffffffffffffffffffffffffffffffffff166125f0612e1b565b73ffffffffffffffffffffffffffffffffffffffff161415801561266457506007600061261b612e1b565b73ffffffffffffffffffffffffffffffffffffffff1673ffffffffffffffffffffffffffffffffffffffff16815260200190815260200160002060009054906101000a900460ff165b6126a3576040517f08c379a000000000000000000000000000000000000000000000000000000000815260040161269a90613850565b60405180910390fd5b60008484905090508083839050146126f0576040517f08c379a00000000000000000000000000000000000000000000000000000000081526004016126e790613910565b60405180910390fd5b60005b8181101561286157600073ffffffffffffffffffffffffffffffffffffffff1686868381811061272657612725613cb4565b5b905060200201602081019061273b9190612f38565b73ffffffffffffffffffffffffffffffffffffffff16141580156127785750600084848381811061276f5761276e613cb4565b5b90506020020135115b6127b7576040517f08c379a00000000000000000000000000000000000000000000000000000000081526004016127ae906137d0565b60405180910390fd5b670de0b6b3a76400008484838181106127d3576127d2613cb4565b5b905060200201356127e49190613b01565b600860008888858181106127fb576127fa613cb4565b5b90506020020160208101906128109190612f38565b73ffffffffffffffffffffffffffffffffffffffff1673ffffffffffffffffffffffffffffffffffffffff16815260200190815260200160002081905550808061285990613c0d565b9150506126f3565b505050505050565b612871612e1b565b73ffffffffffffffffffffffffffffffffffffffff1661288f611bb2565b73ffffffffffffffffffffffffffffffffffffffff16146128e5576040517f08c379a00000000000000000000000000000000000000000000000000000000081526004016128dc906137f0565b60405180910390fd5b600073ffffffffffffffffffffffffffffffffffffffff168173ffffffffffffffffffffffffffffffffffffffff161415612955576040517f08c379a000000000000000000000000000000000000000000000000000000000815260040161294c90613690565b60405180910390fd5b8073ffffffffffffffffffffffffffffffffffffffff1660008054906101000a900473ffffffffffffffffffffffffffffffffffffffff1673ffffffffffffffffffffffffffffffffffffffff167f8be0079c531659141344cd1fd0a4f28419497f9722a3daafe3b4186f6b6457e060405160405180910390a3806000806101000a81548173ffffffffffffffffffffffffffffffffffffffff021916908373ffffffffffffffffffffffffffffffffffffffff16021790555050565b600160009054906101000a900473ffffffffffffffffffffffffffffffffffffffff1681565b600073ffffffffffffffffffffffffffffffffffffffff16612a58612e1b565b73ffffffffffffffffffffffffffffffffffffffff1614158015612acc575060076000612a83612e1b565b73ffffffffffffffffffffffffffffffffffffffff1673ffffffffffffffffffffffffffffffffffffffff16815260200190815260200160002060009054906101000a900460ff165b612b0b576040517f08c379a0000000000000000000000000000000000000000000000000000000008152600401612b0290613850565b60405180910390fd5b6000600a60008473ffffffffffffffffffffffffffffffffffffffff1673ffffffffffffffffffffffffffffffffffffffff168152602001908152602001600020600083815260200190815260200160002090508060030160009054906101000a900460ff1615612bb1576040517f08c379a0000000000000000000000000000000000000000000000000000000008152600401612ba8906136d0565b60405180910390fd5b600081600101548260000154612bc79190613b5b565b90506000811415612c0d576040517f08c379a0000000000000000000000000000000000000000000000000000000008152600401612c0490613890565b60405180910390fd5b6000826000018190555080600c6000600160009054906101000a900473ffffffffffffffffffffffffffffffffffffffff1673ffffffffffffffffffffffffffffffffffffffff1673ffffffffffffffffffffffffffffffffffffffff16815260200190815260200160002054612c849190613b5b565b600c6000600160009054906101000a900473ffffffffffffffffffffffffffffffffffffffff1673ffffffffffffffffffffffffffffffffffffffff1673ffffffffffffffffffffffffffffffffffffffff16815260200190815260200160002081905550600160009054906101000a900473ffffffffffffffffffffffffffffffffffffffff1673ffffffffffffffffffffffffffffffffffffffff1663a9059cbb612d2f611bb2565b836040518363ffffffff1660e01b8152600401612d4d9291906135cf565b602060405180830381600087803b158015612d6757600080fd5b505af1158015612d7b573d6000803e3d6000fd5b505050506040513d601f19601f82011682018060405250810190612d9f9190613026565b612dde576040517f08c379a0000000000000000000000000000000000000000000000000000000008152600401612dd590613790565b60405180910390fd5b7f398bd6b21ae4164ec322fb0eb8c2eb6277f36fd41903fbbed594dfe12559128184604051612e0d919061357d565b60405180910390a150505050565b600033905090565b600081359050612e328161429f565b92915050565b60008083601f840112612e4e57612e4d613ce8565b5b8235905067ffffffffffffffff811115612e6b57612e6a613ce3565b5b602083019150836020820283011115612e8757612e86613ced565b5b9250929050565b60008083601f840112612ea457612ea3613ce8565b5b8235905067ffffffffffffffff811115612ec157612ec0613ce3565b5b602083019150836020820283011115612edd57612edc613ced565b5b9250929050565b600081359050612ef3816142b6565b92915050565b600081519050612f08816142b6565b92915050565b600081359050612f1d816142cd565b92915050565b600081519050612f32816142cd565b92915050565b600060208284031215612f4e57612f4d613cf7565b5b6000612f5c84828501612e23565b91505092915050565b60008060408385031215612f7c57612f7b613cf7565b5b6000612f8a85828601612e23565b9250506020612f9b85828601612f0e565b9150509250929050565b60008060008060408587031215612fbf57612fbe613cf7565b5b600085013567ffffffffffffffff811115612fdd57612fdc613cf2565b5b612fe987828801612e38565b9450945050602085013567ffffffffffffffff81111561300c5761300b613cf2565b5b61301887828801612e8e565b925092505092959194509250565b60006020828403121561303c5761303b613cf7565b5b600061304a84828501612ef9565b91505092915050565b60006020828403121561306957613068613cf7565b5b600061307784828501612f0e565b91505092915050565b60006020828403121561309657613095613cf7565b5b60006130a484828501612f23565b91505092915050565b6000806000606084860312156130c6576130c5613cf7565b5b60006130d486828701612f0e565b93505060206130e586828701612ee4565b92505060406130f686828701612e23565b9150509250925092565b600061310c838361351d565b60608301905092915050565b61312181613b8f565b82525050565b600061313282613a40565b61313c8185613a58565b935061314783613a30565b8060005b8381101561317857815161315f8882613100565b975061316a83613a4b565b92505060018101905061314b565b5085935050505092915050565b61318e81613ba1565b82525050565b61319d81613ba1565b82525050565b6131ac81613bd7565b82525050565b60006131bf602983613a69565b91506131ca82613cfc565b604082019050919050565b60006131e2601783613a69565b91506131ed82613d4b565b602082019050919050565b6000613205602683613a69565b915061321082613d74565b604082019050919050565b6000613228601883613a69565b915061323382613dc3565b602082019050919050565b600061324b601983613a69565b915061325682613dec565b602082019050919050565b600061326e600c83613a69565b915061327982613e15565b602082019050919050565b6000613291603383613a69565b915061329c82613e3e565b604082019050919050565b60006132b4602183613a69565b91506132bf82613e8d565b604082019050919050565b60006132d7601e83613a69565b91506132e282613edc565b602082019050919050565b60006132fa602c83613a69565b915061330582613f05565b604082019050919050565b600061331d601883613a69565b915061332882613f54565b602082019050919050565b6000613340601f83613a69565b915061334b82613f7d565b602082019050919050565b6000613363601983613a69565b915061336e82613fa6565b602082019050919050565b6000613386602083613a69565b915061339182613fcf565b602082019050919050565b60006133a9602683613a69565b91506133b482613ff8565b604082019050919050565b60006133cc602483613a69565b91506133d782614047565b604082019050919050565b60006133ef601783613a69565b91506133fa82614096565b602082019050919050565b6000613412605483613a69565b915061341d826140bf565b606082019050919050565b6000613435601e83613a69565b915061344082614134565b602082019050919050565b6000613458602883613a69565b91506134638261415d565b604082019050919050565b600061347b601a83613a69565b9150613486826141ac565b602082019050919050565b600061349e601683613a69565b91506134a9826141d5565b602082019050919050565b60006134c1601a83613a69565b91506134cc826141fe565b602082019050919050565b60006134e4602f83613a69565b91506134ef82614227565b604082019050919050565b6000613507601983613a69565b915061351282614276565b602082019050919050565b606082016000820151613533600085018261355f565b506020820151613546602085018261355f565b5060408201516135596040850182613185565b50505050565b61356881613bcd565b82525050565b61357781613bcd565b82525050565b60006020820190506135926000830184613118565b92915050565b60006060820190506135ad6000830186613118565b6135ba6020830185613118565b6135c7604083018461356e565b949350505050565b60006040820190506135e46000830185613118565b6135f1602083018461356e565b9392505050565b600060208201905081810360008301526136128184613127565b905092915050565b600060208201905061362f6000830184613194565b92915050565b600060208201905061364a60008301846131a3565b92915050565b60006020820190508181036000830152613669816131b2565b9050919050565b60006020820190508181036000830152613689816131d5565b9050919050565b600060208201905081810360008301526136a9816131f8565b9050919050565b600060208201905081810360008301526136c98161321b565b9050919050565b600060208201905081810360008301526136e98161323e565b9050919050565b6000602082019050818103600083015261370981613261565b9050919050565b6000602082019050818103600083015261372981613284565b9050919050565b60006020820190508181036000830152613749816132a7565b9050919050565b60006020820190508181036000830152613769816132ca565b9050919050565b60006020820190508181036000830152613789816132ed565b9050919050565b600060208201905081810360008301526137a981613310565b9050919050565b600060208201905081810360008301526137c981613333565b9050919050565b600060208201905081810360008301526137e981613356565b9050919050565b6000602082019050818103600083015261380981613379565b9050919050565b600060208201905081810360008301526138298161339c565b9050919050565b60006020820190508181036000830152613849816133bf565b9050919050565b60006020820190508181036000830152613869816133e2565b9050919050565b6000602082019050818103600083015261388981613405565b9050919050565b600060208201905081810360008301526138a981613428565b9050919050565b600060208201905081810360008301526138c98161344b565b9050919050565b600060208201905081810360008301526138e98161346e565b9050919050565b6000602082019050818103600083015261390981613491565b9050919050565b60006020820190508181036000830152613929816134b4565b9050919050565b60006020820190508181036000830152613949816134d7565b9050919050565b60006020820190508181036000830152613969816134fa565b9050919050565b6000602082019050613985600083018461356e565b92915050565b60006040820190506139a0600083018561356e565b6139ad6020830184613194565b9392505050565b60006060820190506139c9600083018661356e565b6139d6602083018561356e565b6139e36040830184613194565b949350505050565b6000608082019050613a00600083018761356e565b613a0d602083018661356e565b613a1a604083018561356e565b613a276060830184613194565b95945050505050565b6000819050602082019050919050565b600081519050919050565b6000602082019050919050565b600082825260208201905092915050565b600082825260208201905092915050565b6000613a8582613bcd565b9150613a9083613bcd565b9250827fffffffffffffffffffffffffffffffffffffffffffffffffffffffffffffffff03821115613ac557613ac4613c56565b5b828201905092915050565b6000613adb82613bcd565b9150613ae683613bcd565b925082613af657613af5613c85565b5b828204905092915050565b6000613b0c82613bcd565b9150613b1783613bcd565b9250817fffffffffffffffffffffffffffffffffffffffffffffffffffffffffffffffff0483118215151615613b5057613b4f613c56565b5b828202905092915050565b6000613b6682613bcd565b9150613b7183613bcd565b925082821015613b8457613b83613c56565b5b828203905092915050565b6000613b9a82613bad565b9050919050565b60008115159050919050565b600073ffffffffffffffffffffffffffffffffffffffff82169050919050565b6000819050919050565b6000613be282613be9565b9050919050565b6000613bf482613bfb565b9050919050565b6000613c0682613bad565b9050919050565b6000613c1882613bcd565b91507fffffffffffffffffffffffffffffffffffffffffffffffffffffffffffffffff821415613c4b57613c4a613c56565b5b600182019050919050565b7f4e487b7100000000000000000000000000000000000000000000000000000000600052601160045260246000fd5b7f4e487b7100000000000000000000000000000000000000000000000000000000600052601260045260246000fd5b7f4e487b7100000000000000000000000000000000000000000000000000000000600052603260045260246000fd5b600080fd5b600080fd5b600080fd5b600080fd5b600080fd5b7f54686973206164647265737320697320616c726561647920616464656420617360008201527f20616e2061646d696e0000000000000000000000000000000000000000000000602082015250565b7f56657374696e673a2043616e2774207769746864726177000000000000000000600082015250565b7f4f776e61626c653a206e6577206f776e657220697320746865207a65726f206160008201527f6464726573730000000000000000000000000000000000000000000000000000602082015250565b7f56657374696e673a207769746864726177206661696c65640000000000000000600082015250565b7f56657374696e673a204163636f756e7420697320666978656400000000000000600082015250565b7f5a65726f20616464726573730000000000000000000000000000000000000000600082015250565b7f4c6f636b20706572696f6420456e6420616e6420416c6c206c6f636b6564207460008201527f6f6b656e73207765726520756e6c6f636b656400000000000000000000000000602082015250565b7f74686973206163636f756e742068617320616c7265616479207363686564756c60008201527f6500000000000000000000000000000000000000000000000000000000000000602082015250565b7f546965723a20696e646578206f66207469657220697320696e76616c69640000600082015250565b7f56657374696e673a2063757272656e637920746f6b656e20616d6f756e74206960008201527f73206e6f7420656e6f7567680000000000000000000000000000000000000000602082015250565b7f56657374696e673a207472616e73666572206661696c65640000000000000000600082015250565b7f56657374696e673a20756e6c6f636b54696d65206e6f74207265616368656400600082015250565b7f546965723a20696e76616c6964207469657220706172616d7300000000000000600082015250565b7f4f776e61626c653a2063616c6c6572206973206e6f7420746865206f776e6572600082015250565b7f596f752063616e27742072756e20756e6c6f636b546f6b656e2066756e63746960008201527f6f6e206e6f770000000000000000000000000000000000000000000000000000602082015250565b7f76657374696e673a2063757272656e6379206164647265737320696e20696e7660008201527f616c696400000000000000000000000000000000000000000000000000000000602082015250565b7f43616c6c6572206973206e6f74207468652061646d696e000000000000000000600082015250565b7f596f75206e65656420746f206465706f7369742032353030303030204353504460008201527f7320696e746f207468697320636f6e7472616374206265666f726520796f752060208201527f7374617274207468697320636f6e74726163742e000000000000000000000000604082015250565b7f56657374696e673a206e6f206f75747374616e64696e6720746f6b656e730000600082015250565b7f416c726561647920756e6c6f636b656420746f6b656e73206f6620746869732060008201527f7363686564756c65000000000000000000000000000000000000000000000000602082015250565b7f56657374696e673a204e6f7420656e6f75676820746f6b656e73000000000000600082015250565b7f56657374696e673a206e6f7420636c61696d61626c6500000000000000000000600082015250565b7f546965723a204172726179206c656e6774687320646966666572000000000000600082015250565b7f56657374696e673a206373706420746f6b656e20616d6f756e7420706172616d60008201527f6574657220697320696e76616c69640000000000000000000000000000000000602082015250565b7f546869732061646472657373206973206e6f742061646d696e00000000000000600082015250565b6142a881613b8f565b81146142b357600080fd5b50565b6142bf81613ba1565b81146142ca57600080fd5b50565b6142d681613bcd565b81146142e157600080fd5b5056fea264697066735822122099c809e6c9cfd20d671d8ea19767085ffb55da8ba0c37972b7e7f3752afff8bc64736f6c63430008070033",
  "immutableReferences": {},
  "source": "// SPDX-License-Identifier: GPL-3.0-only\r\npragma solidity 0.8.7;\r\n\r\n/*\r\n * @dev Provides information about the current execution context, including the\r\n * sender of the transaction and its data. While these are generally available\r\n * via msg.sender and msg.data, they should not be accessed in such a direct\r\n * manner, since when dealing with meta-transactions the account sending and\r\n * paying for execution may not be the actual sender (as far as an application\r\n * is concerned).\r\n *\r\n * This contract is only required for intermediate, library-like contracts.\r\n */\r\nabstract contract Context {\r\n    function _msgSender() internal view virtual returns (address) {\r\n        return msg.sender;\r\n    }\r\n\r\n    function _msgData() internal view virtual returns (bytes calldata) {\r\n        this; // silence state mutability warning without generating bytecode - see https://github.com/ethereum/solidity/issues/2691\r\n        return msg.data;\r\n    }\r\n}\r\n\r\n// File: @openzeppelin/contracts/access/Ownable.sol\r\n\r\n/**\r\n * @dev Contract module which provides a basic access control mechanism, where\r\n * there is an account (an owner) that can be granted exclusive access to\r\n * specific functions.\r\n *\r\n * By default, the owner account will be the one that deploys the contract. This\r\n * can later be changed with {transferOwnership}.\r\n *\r\n * This module is used through inheritance. It will make available the modifier\r\n * `onlyOwner`, which can be applied to your functions to restrict their use to\r\n * the owner.\r\n */\r\nabstract contract Ownable is Context {\r\n    address private _owner;\r\n\r\n    event OwnershipTransferred(address indexed previousOwner, address indexed newOwner);\r\n\r\n    /**\r\n     * @dev Initializes the contract setting the deployer as the initial owner.\r\n     */\r\n    constructor () {\r\n        address msgSender = _msgSender();\r\n        _owner = msgSender;\r\n        emit OwnershipTransferred(address(0), msgSender);\r\n    }\r\n\r\n    /**\r\n     * @dev Returns the address of the current owner.\r\n     */\r\n    function owner() public view virtual returns (address) {\r\n        return _owner;\r\n    }\r\n\r\n    /**\r\n     * @dev Throws if called by any account other than the owner.\r\n     */\r\n    modifier onlyOwner() {\r\n        require(owner() == _msgSender(), \"Ownable: caller is not the owner\");\r\n        _;\r\n    }\r\n\r\n    /**\r\n     * @dev Leaves the contract without owner. It will not be possible to call\r\n     * `onlyOwner` functions anymore. Can only be called by the current owner.\r\n     *\r\n     * NOTE: Renouncing ownership will leave the contract without an owner,\r\n     * thereby removing any functionality that is only available to the owner.\r\n     */\r\n    function renounceOwnership() public virtual onlyOwner {\r\n        emit OwnershipTransferred(_owner, address(0));\r\n        _owner = address(0);\r\n    }\r\n\r\n    /**\r\n     * @dev Transfers ownership of the contract to a new account (`newOwner`).\r\n     * Can only be called by the current owner.\r\n     */\r\n    function transferOwnership(address newOwner) public virtual onlyOwner {\r\n        require(newOwner != address(0), \"Ownable: new owner is the zero address\");\r\n        emit OwnershipTransferred(_owner, newOwner);\r\n        _owner = newOwner;\r\n    }\r\n}\r\n\r\ninterface IBEP20 {\r\n    \r\n  /**\r\n   * @dev Returns the amount of tokens in existence.\r\n   */\r\n  function totalSupply() external view returns (uint256);\r\n\r\n  /**\r\n   * @dev Returns the token decimals.\r\n   */\r\n  function decimals() external view returns (uint8);\r\n\r\n  /**\r\n   * @dev Returns the token symbol.\r\n   */\r\n  function symbol() external view returns (string memory);\r\n\r\n  /**\r\n  * @dev Returns the token name.\r\n  */\r\n  function name() external view returns (string memory);\r\n\r\n  /**\r\n   * @dev Returns the bep token owner.\r\n   */\r\n  function getOwner() external view returns (address);\r\n\r\n  /**\r\n   * @dev Returns the amount of tokens owned by `account`.\r\n   */\r\n  function balanceOf(address account) external view returns (uint256);\r\n\r\n  /**\r\n   * @dev Moves `amount` tokens from the caller's account to `recipient`.\r\n   *\r\n   * Returns a boolean value indicating whether the operation succeeded.\r\n   *\r\n   * Emits a {Transfer} event.\r\n   */\r\n  function transfer(address recipient, uint256 amount) external returns (bool);\r\n\r\n  /**\r\n   * @dev Returns the remaining number of tokens that `spender` will be\r\n   * allowed to spend on behalf of `owner` through {transferFrom}. This is\r\n   * zero by default.\r\n   *\r\n   * This value changes when {approve} or {transferFrom} are called.\r\n   */\r\n  function allowance(address _owner, address spender) external view returns (uint256);\r\n\r\n  /**\r\n   * @dev Sets `amount` as the allowance of `spender` over the caller's tokens.\r\n   *\r\n   * Returns a boolean value indicating whether the operation succeeded.\r\n   *\r\n   * IMPORTANT: Beware that changing an allowance with this method brings the risk\r\n   * that someone may use both the old and the new allowance by unfortunate\r\n   * transaction ordering. One possible solution to mitigate this race\r\n   * condition is to first reduce the spender's allowance to 0 and set the\r\n   * desired value afterwards:\r\n   * https://github.com/ethereum/EIPs/issues/20#issuecomment-263524729\r\n   *\r\n   * Emits an {Approval} event.\r\n   */\r\n  function approve(address spender, uint256 amount) external returns (bool);\r\n\r\n  /**\r\n   * @dev Moves `amount` tokens from `sender` to `recipient` using the\r\n   * allowance mechanism. `amount` is then deducted from the caller's\r\n   * allowance.\r\n   *\r\n   * Returns a boolean value indicating whether the operation succeeded.\r\n   *\r\n   * Emits a {Transfer} event.\r\n   */\r\n  function transferFrom(address sender, address recipient, uint256 amount) external returns (bool);\r\n\r\n  /**\r\n   * @dev Emitted when `value` tokens are moved from one account (`from`) to\r\n   * another (`to`).\r\n   *\r\n   * Note that `value` may be zero.\r\n   */\r\n  event Transfer(address indexed from, address indexed to, uint256 value);\r\n\r\n  /**\r\n   * @dev Emitted when the allowance of a `spender` for an `owner` is set by\r\n   * a call to {approve}. `value` is the new allowance.\r\n   */\r\n  event Approval(address indexed owner, address indexed spender, uint256 value);\r\n  \r\n}\r\n/**\r\n * Tracer Standard Vesting Contract\r\n */\r\ncontract Vesting is Ownable {\r\n\r\n    //initialize data: token, member, vesting time\r\n    IBEP20 public token;\r\n    address treasuryWallet;\r\n    address[] public members;\r\n    uint256[] public vestingTimeList;\r\n    uint256 releasedVestingId;\r\n    uint256 totalSoldAmount = 0;\r\n    mapping(address => bool) public admins;\r\n\r\n\r\n    //tiger of members\r\n    struct Tier {\r\n        uint256 tierId;\r\n        uint256 amountMax;\r\n    }\r\n\r\n    mapping(address => uint256) public whitelistOfTiers; //whitelist: (address => maxAmount)\r\n\r\n    struct Schedule {\r\n        uint256 amount;\r\n        uint256 claimedAmount;\r\n        uint256 unlockTime;\r\n        bool isFixed;\r\n    }\r\n\r\n    struct Plain {\r\n        uint256 percentage;\r\n        uint256 unlockTime;\r\n        bool isSent;\r\n    }\r\n    Plain[] public schedulePlain; // array of plains\r\n\r\n    // user => scheduleId => schedule\r\n    mapping(address => mapping(uint256 => Schedule)) public schedules;\r\n    mapping(address => uint256) public numberOfSchedules; //number of the schedule by address\r\n    mapping(address => uint256) public locked; //locked amount mapping by address\r\n\r\n    event Claim(address indexed claimer, uint256 amount);\r\n    event Cancelled(address account);\r\n    event NewVesting(address indexed investor, uint256 amount, bool isFixed);\r\n    event AddNewAdmin(address _address);\r\n    event RemoveAdminAddress(address _address);\r\n    event UnlockTokens(uint256 _timestamp);\r\n    event UpdateTreasuryWallet(address _treasuryWallet);\r\n\r\n    modifier onlyAdmin() {\r\n        require(_msgSender() != address(0x0) && admins[_msgSender()], \"Caller is not the admin\");\r\n        _;\r\n    }\r\n\r\n    modifier checkWhitelist(address account, uint256 amount) {\r\n        uint256 maxAmount = whitelistOfTiers[account];\r\n        require(maxAmount != 0 && maxAmount >= amount * 10 ** 18, \"Invalid whitelist member!\");\r\n        _;\r\n    }\r\n\r\n    constructor() {\r\n        token = IBEP20(address(0xef9481115ff33E94d3E28A52D3A8F642bf3521e5)); // token address\r\n        treasuryWallet = address(0x7621B2c41eC4DF9BaAA32D7BdD48144442B2C8a7); //treasury wallet address\r\n\r\n        admins[owner()] = true;  // add owner to admin role\r\n        releasedVestingId = 0;   // set the initial releasedVestingId\r\n\r\n        // add schedule time\r\n        vestingTimeList.push(1639162800); // Dec 10 2021 07:00PM\r\n        vestingTimeList.push(1641841200); // Jan 10 2022 07:00PM\r\n        vestingTimeList.push(1644519600); // Feb 10 2022 07:00PM\r\n        vestingTimeList.push(1646938800); // Mar 10 2022 07:00PM\r\n        vestingTimeList.push(1649617200); // Apr 10 2022 07:00PM\r\n        vestingTimeList.push(1652209200); // May 10 2022 07:00PM\r\n\r\n        //set the schedule plain\r\n        for(uint256 i = 0; i < vestingTimeList.length; i++){\r\n            if(i == 0) { // after TGE \r\n                schedulePlain.push(Plain(\r\n                    5, //%\r\n                    vestingTimeList[i],\r\n                    false\r\n                ));\r\n            }else { // next steps\r\n                schedulePlain.push(Plain(\r\n                    19, //%\r\n                    vestingTimeList[i],\r\n                    false\r\n                ));\r\n            }\r\n        }\r\n\r\n        whitelistOfTiers[owner()] = 87500000 * 10 ** 18;\r\n    }\r\n\r\n    function addAdmin(address _address) external onlyOwner {\r\n        require(_address != address(0x0), \"Zero address\");\r\n        require(!admins[_address], \"This address is already added as an admin\");\r\n        admins[_address] = true;\r\n        emit AddNewAdmin(_address);\r\n    }\r\n\r\n    function removeAdmin(address _address) external onlyOwner {\r\n        require(_address != address(0x0), \"Zero address\");\r\n        require(admins[_address], \"This address is not admin\");\r\n        admins[_address] = false;\r\n        emit RemoveAdminAddress(_address);\r\n    }\r\n\r\n    function getTotalSoldAmount() external view returns(uint256) {\r\n        return totalSoldAmount;\r\n    }\r\n\r\n    function getParticipants() external view returns(uint256) {\r\n        return members.length;\r\n    }\r\n\r\n    function setTreasuryWallet(address _treasuryWallet) external onlyAdmin {\r\n        treasuryWallet = _treasuryWallet;\r\n        emit UpdateTreasuryWallet(_treasuryWallet);\r\n    }\r\n\r\n    function getTreasuryWallet() external view returns(address) {\r\n        return treasuryWallet;\r\n    }\r\n\r\n    /**\r\n     * @notice Sets up a vesting schedule for a set user.\r\n     * @dev adds a new Schedule to the schedules mapping.\r\n     * @param amount the amount of tokens being vested for the user.\r\n     * @param isFixed a flag for if the vesting schedule is fixed or not. Fixed vesting schedules can't be cancelled.\r\n     */\r\n    function addVest(\r\n        uint256 amount,\r\n        bool isFixed,\r\n        address payCurrency\r\n    ) public payable {\r\n        // check amount\r\n        uint256 usdAmountToBuyToken = amount * (10 ** 18) * 8 / 1000;\r\n        require(amount > 0, \"Vesting: cspd token amount parameter is invalid\");\r\n        require(payCurrency != address(0x0), \"vesting: currency address in invalid\");\r\n        require(IBEP20(payCurrency).balanceOf(msg.sender) >= usdAmountToBuyToken, \"Vesting: currency token amount is not enough\");\r\n\r\n        uint256 currentLocked = locked[address(token)];\r\n\r\n        // require the token is present\r\n        require(IBEP20(token).balanceOf(address(this)) >= currentLocked + amount * 10 ** 18, \"Vesting: Not enough tokens\");\r\n\r\n        // create the schedule\r\n        uint256 currentNumSchedules = numberOfSchedules[msg.sender];\r\n        require(currentNumSchedules == 0, \"this account has already schedule\");\r\n        \r\n        for(uint256 i = 0; i < schedulePlain.length; i++){\r\n            uint256 _amount = amount * (10 ** 18) * schedulePlain[i].percentage / 100;\r\n            uint256 _unlockTime = schedulePlain[i].unlockTime;\r\n\r\n            schedules[msg.sender][i] = Schedule(\r\n                _amount,\r\n                0,\r\n                _unlockTime,\r\n                isFixed\r\n            );\r\n\r\n            numberOfSchedules[msg.sender] = i + 1;\r\n            locked[address(token)] = currentLocked + amount * 10 ** 18;\r\n            totalSoldAmount += _amount;\r\n        }\r\n        members.push(msg.sender);\r\n        IBEP20(payCurrency).transferFrom(msg.sender, address(treasuryWallet), usdAmountToBuyToken);\r\n        emit NewVesting(msg.sender, amount, isFixed);\r\n    }\r\n\r\n    /**\r\n     * @notice allows users to claim vested tokens if the cliff time has passed.\r\n     * @param scheduleNumber which schedule the user is claiming against\r\n     */\r\n    function claim(uint256 scheduleNumber) external {\r\n        Schedule storage schedule = schedules[msg.sender][scheduleNumber];\r\n        require(\r\n            schedule.unlockTime <= block.timestamp,\r\n            \"Vesting: unlockTime not reached\"\r\n        );\r\n        require(schedule.amount > 0, \"Vesting: not claimable\");\r\n\r\n        uint256 amountToTransfer = schedule.amount - schedule.claimedAmount;\r\n        schedule.claimedAmount = schedule.amount; // set new claimed amount based off the curve\r\n        locked[address(token)] = locked[address(token)] - amountToTransfer;\r\n        require(IBEP20(token).transfer(msg.sender, amountToTransfer), \"Vesting: transfer failed\");\r\n        emit Claim(msg.sender, schedule.amount);\r\n    }\r\n\r\n    /**\r\n     * @notice Allows a vesting schedule to be cancelled.\r\n     * @dev Any outstanding tokens are returned to the system.\r\n     * @param account the account of the user whos vesting schedule is being cancelled.\r\n     */\r\n    function rug(address account, uint256 scheduleId) external onlyAdmin {\r\n        Schedule storage schedule = schedules[account][scheduleId];\r\n        require(!schedule.isFixed, \"Vesting: Account is fixed\");\r\n        uint256 outstandingAmount = schedule.amount -\r\n            schedule.claimedAmount;\r\n        require(outstandingAmount != 0, \"Vesting: no outstanding tokens\");\r\n        schedule.amount = 0;\r\n        locked[address(token)] = locked[address(token)] - outstandingAmount;\r\n        require(IBEP20(token).transfer(owner(), outstandingAmount), \"Vesting: transfer failed\");\r\n        emit Cancelled(account);\r\n    }\r\n\r\n    /**\r\n     * @return calculates the amount of tokens to distribute to an account at any instance in time, based off some\r\n     *         total claimable amount.\r\n     * @param amount the total outstanding amount to be claimed for this vesting schedule.\r\n     * @param currentTime the current timestamp.\r\n     * @param startTime the timestamp this vesting schedule started.\r\n     * @param endTime the timestamp this vesting schedule ends.\r\n     */\r\n    \r\n    /**\r\n     * @notice Withdraws CSPD tokens from the contract.\r\n     * @dev blocks withdrawing locked tokens.\r\n     */\r\n    function withdraw(uint256 amount) external onlyAdmin {\r\n        amount = amount * 10 ** 18;\r\n        require(\r\n            token.balanceOf(address(this)) - locked[address(token)] >= amount,\r\n            \"Vesting: Can't withdraw\"\r\n        );\r\n        require(token.transfer(owner(), amount), \"Vesting: withdraw failed\");\r\n    }\r\n\r\n    function multiSetTierOfAccount(\r\n        address[] calldata accounts,\r\n        uint256[] calldata _maxAmount\r\n    ) external onlyAdmin {\r\n        uint256 _numberOfAccounts = accounts.length;\r\n        require( _maxAmount.length == _numberOfAccounts, \"Tier: Array lengths differ\");\r\n\r\n        for (uint256 i = 0; i < _numberOfAccounts; i++) {\r\n            require( accounts[i] != address(0x0) && _maxAmount[i] > 0, \"Tier: invalid tier params\");\r\n            whitelistOfTiers[accounts[i]] = _maxAmount[i] * 10 ** 18;\r\n        }\r\n    }\r\n\r\n    function setTierOfAccount(\r\n        address account,\r\n        uint256 _maxAmount\r\n    ) external onlyAdmin {\r\n        require(_maxAmount > 0, \"Tier: index of tier is invalid\");\r\n        whitelistOfTiers[account] = _maxAmount * 10 ** 18;\r\n    }\r\n\r\n    function getTierOfAccount(\r\n        address account\r\n    ) public view returns (uint256){\r\n        return whitelistOfTiers[account];\r\n    }\r\n\r\n    function unlockToken() external onlyAdmin {\r\n        uint256 currentTime = block.timestamp;\r\n        uint256 startTime = schedulePlain[releasedVestingId].unlockTime;\r\n        require(currentTime >= startTime, \"You can't run unlockToken function now\");\r\n        require(releasedVestingId < 6, \"Lock period End and All locked tokens were unlocked\");\r\n        require(!schedulePlain[releasedVestingId].isSent, \"Already unlocked tokens of this schedule\");\r\n\r\n        if (releasedVestingId == 0) {\r\n            require(token.balanceOf(address(this)) >= 2500000, \"You need to deposit 2500000 CSPDs into this contract before you start this contract.\");\r\n        }\r\n        for (uint256 i = 0; i < members.length; i++) {\r\n            Schedule memory _schedule = schedules[members[i]][releasedVestingId];\r\n            if (_schedule.amount != _schedule.claimedAmount) {\r\n                uint256 transferAmount = _schedule.amount - _schedule.claimedAmount;\r\n                require(token.transfer(members[i], transferAmount));\r\n                locked[address(token)] -= transferAmount;\r\n                schedules[members[i]][releasedVestingId].claimedAmount += transferAmount;\r\n            }\r\n        }\r\n        emit UnlockTokens(vestingTimeList[releasedVestingId]);\r\n        schedulePlain[releasedVestingId].isSent = true;\r\n        releasedVestingId = releasedVestingId + 1;\r\n    }\r\n\r\n    function getSchedulePlain() external view returns(Plain [] memory) {\r\n        return schedulePlain;\r\n    }\r\n}",
  "sourcePath": "D:\\Work Space\\CasperPad\\CasperPadToken_Contract\\contracts\\Vesting.sol",
  "compiler": {
    "name": "solc",
    "version": "0.8.7+commit.e28d00a7.Emscripten.clang"
  },
  "schemaVersion": "3.4.3",
  "updatedAt": "2021-12-13T14:14:42.664Z",
  "devdoc": {
    "kind": "dev",
    "methods": {
      "addVest(uint256,bool,address)": {
        "details": "adds a new Schedule to the schedules mapping.",
        "params": {
          "amount": "the amount of tokens being vested for the user.",
          "isFixed": "a flag for if the vesting schedule is fixed or not. Fixed vesting schedules can't be cancelled."
        }
      },
      "claim(uint256)": {
        "params": {
          "scheduleNumber": "which schedule the user is claiming against"
        }
      },
      "owner()": {
        "details": "Returns the address of the current owner."
      },
      "renounceOwnership()": {
        "details": "Leaves the contract without owner. It will not be possible to call `onlyOwner` functions anymore. Can only be called by the current owner. NOTE: Renouncing ownership will leave the contract without an owner, thereby removing any functionality that is only available to the owner."
      },
      "rug(address,uint256)": {
        "details": "Any outstanding tokens are returned to the system.",
        "params": {
          "account": "the account of the user whos vesting schedule is being cancelled."
        }
      },
      "transferOwnership(address)": {
        "details": "Transfers ownership of the contract to a new account (`newOwner`). Can only be called by the current owner."
      },
      "withdraw(uint256)": {
        "details": "blocks withdrawing locked tokens."
      }
    },
    "version": 1
  },
  "userdoc": {
    "kind": "user",
    "methods": {
      "addVest(uint256,bool,address)": {
        "notice": "Sets up a vesting schedule for a set user."
      },
      "claim(uint256)": {
        "notice": "allows users to claim vested tokens if the cliff time has passed."
      },
      "rug(address,uint256)": {
        "notice": "Allows a vesting schedule to be cancelled."
      },
      "withdraw(uint256)": {
        "notice": "Withdraws CSPD tokens from the contract."
      }
    },
    "notice": "Tracer Standard Vesting Contract",
    "version": 1
  }
}